:020000040000FA
:100000000A128A11EC2FFF1B0D2883137F18831708
:100010000008840A0319FF0A080000308A00040857
:10002000840A820700344134443443342034563443
:1000300061346C347534653420343D3420342534D7
:1000400075340D340A3400340D340A3441344434E8
:10005000433420345334743461347234743465342A
:0800600064340D340A3400344D
:100A1200080064008001840A0406031900340406F5
:100A22000B2DF000831203130C1E182D192D132DFC
:100A320070089900080083160313851480309F0004
:100A42008930831203139F000800831603130717CC
:100A520087178130990018151812831203139817FB
:100A620083160313981683120313181608003230E4
:100A720083120313B5003008B6000030B700B80186
:100A8200B901BF01C0013630AC000030AD00310801
:100A9200AE003530AF000A128A115B250A128A11A4
:100AA2008312031338083007B40034088400831318
:100AB20080010800831203132E08FD006F2D83129C
:100AC20003132C08A0002D08A1007D30A2002F08DE
:100AD200A3000A128A1128270A128A117D088400AB
:100AE2000A128A110D200A128A11003A031D7A2D68
:100AF2007B2D602D83120313AC01AD010800952DEF
:100B02007208FF00710884000A128A1103200A1277
:100B12008A110A128A1112250A128A110130F1076A
:100B22000318F20A0030F207720883120313FF005F
:100B3200710884000A128A1103200A128A11003AEB
:100B4200031DA42DA52D812D0800F500C5308312AB
:100B520003139F057508F20002300310F20DFF3EE9
:100B6200031DAE2D0310720D9F042130F200F20B13
:100B7200B82D831203131F151F19C02DC12DBD2DB2
:100B82001E08F400831603131E08F3007408F10014
:100B92007308F0000800700871040319D12DD22DDA
:100BA200FF2D0130F400DE2D01300310F00DF10DA8
:100BB200FF3E031DD62D0130F407F11FE12DE22D7A
:100BC200D52D71087302031DE82D70087202031CF3
:100BD200EB2DEC2DF22D7008F2027108031CF303C9
:100BE200F30201300310F10CF00CFF3E031DF32D54
:100BF2000130F402031DFE2DFF2DE22D7308F100DA
:100C02007208F0000800F401F5017008710403197C
:100C12000B2E0C2E412E0130F600182E013003103F
:100C2200F00DF10DFF3E031D102E0130F607F11FEE
:100C32001B2E1C2E0F2E01300310F40DF50DFF3E5E
:100C4200031D1D2E71087302031D292E70087202E6
:100C5200031C2C2E2D2E342E7008F2027108031C58
:100C6200F303F302741401300310F10CF00CFF3E95
:100C7200031D352E0130F602031D402E412E1C2E7F
:100C82007508F1007408F00008000A128A1126257E
:100C92000A128A110A128A111C250A128A111230AA
:100CA200F1008030F2000A128A1180250A128A119C
:100CB20001300A128A11A6250A128A1171088312BA
:100CC2000313E3007008E2004430B0000130B100C9
:100CD2006308B3006208B2000A128A1138250A12A8
:100CE2008A114430F1000030F2000A128A11802584
:100CF2000A128A110D3083120313C300AF30C200EF
:100D0200B530C100C10B832EC20B832EC30B832EC1
:100D12008A2E592E0A128A110028720873040319A6
:100D2200932E942E9A2E72087304031D992E9A2ED6
:100D3200A12E70080A128A1109250A128A11272F78
:100D42007208093EF40073080318013E003EF500E4
:100D5200740884008317751C83130008F600840A44
:100D62000008F700760877040319B82EB92EEB2E87
:100D72007208093EF40073080318013E003EF500B4
:100D8200740884008317751C83130008F600840A14
:100D92000008F7007208023EF80073080318013ECB
:100DA200003EF900780884008317791C8313000839
:100DB200FA00840A0008FB007B08803AFC007708EE
:100DC200803A7C02031DE72E76087A020318EA2E87
:100DD200EB2E272F720884008317731C83130008DD
:100DE200F400840A0008F5007208023EF600730857
:100DF2000318013E003EF700760884008317771C33
:100E0200831300087407F9007508F8000318F80A3C
:100E1200801F0C2FF8037808FA00790884008317E2
:100E22007A1C8313700880007208023EF400730873
:100E32000318013E003EF500740884008317751CF8
:100E4200831301308007840A0318800A0800831282
:100E5200031322088400000884000A128A110D205C
:100E62000A128A11253A031D372F382FD22F220852
:100E7200840001308007E401E5010030E800FF3022
:100E8200E600FF30E700220884000008AA002A08D2
:100E920084000A128A110D200A128A11753A031D62
:100EA200532F542FCB2F2308840083130008FF00F5
:100EB200023080077F0884000008A600840A000828
:100EC200A700220884002A08013E8000C02F20309B
:100ED200AB000130AB022B08A03E84000A30F000C8
:100EE2000030F1002708F3002608F2000A128A11E6
:100EF200CC250A128A117008303E831380000A3012
:100F0200F0000030F100831203132708F3002608D3
:100F1200F2000A128A1104260A128A117108831237
:100F22000313A7007008A6002608270403199A2FA6
:100F32009B2FB92F2B08031D9F2FA02F6A2FB92F8C
:100F42002B08A03E840083130008A400A5012408F6
:100F5200F0002508F1002008F2002108F3000A122F
:100F62008A118E260A128A11013083120313AB07EB
:100F720020302B06031DBE2FBF2FA12FEB2F2A08D7
:100F820084000A128A110D200A128A11753A031975
:100F9200682FCB2F831203132208840001308007AD
:100FA200EB2F22088400000884000A128A110D2007
:100FB2000A128A11A400A5012408F0002508F100F4
:100FC2002008F2002108F3000A128A118E260A1262
:100FD2008A11CB2F080083120313E401E501E60115
:100FE200E701E8018313A0308400C0300A128A119D
:0E0FF2000A250A128A1183010A128A11462E5C
:00000001FF
