:020000040000FA
:060000000A128A11FC2F18
:100F7000831603138610061186118312031386103D
:100F800006110611831203138614061186113330DD
:100F9000F200BB30F100DF30F000F00BCD2FF10B91
:100FA000CD2FF20BCD2FD42F8312031386100615ED
:100FB00086113330F200BB30F100DF30F000F00B6F
:100FC000DF2FF10BDF2FF20BDF2FE62F831203133E
:100FD0008610061186153330F200BB30F100DF3089
:100FE000F000F00BF12FF10BF12FF20BF12FF82F96
:100FF000C22F0A128A11002883010A128A11B82FFF
:02400E003A3F37
:00000001FF
